{
  "contractName": "DogsV2",
  "abi": [
    {
      "inputs": [],
      "payable": false,
      "stateMutability": "nonpayable",
      "type": "constructor"
    },
    {
      "constant": true,
      "inputs": [],
      "name": "_initialised",
      "outputs": [
        {
          "internalType": "bool",
          "name": "",
          "type": "bool"
        }
      ],
      "payable": false,
      "stateMutability": "view",
      "type": "function"
    },
    {
      "constant": true,
      "inputs": [],
      "name": "_owner",
      "outputs": [
        {
          "internalType": "address",
          "name": "",
          "type": "address"
        }
      ],
      "payable": false,
      "stateMutability": "view",
      "type": "function"
    },
    {
      "constant": true,
      "inputs": [],
      "name": "getNumberOfDogs",
      "outputs": [
        {
          "internalType": "uint256",
          "name": "",
          "type": "uint256"
        }
      ],
      "payable": false,
      "stateMutability": "view",
      "type": "function"
    },
    {
      "constant": false,
      "inputs": [
        {
          "internalType": "uint256",
          "name": "toSet",
          "type": "uint256"
        }
      ],
      "name": "setNumberOfDogs",
      "outputs": [],
      "payable": false,
      "stateMutability": "nonpayable",
      "type": "function"
    }
  ],
  "bytecode": "0x608060405234801561001057600080fd5b5033600560006101000a81548173ffffffffffffffffffffffffffffffffffffffff021916908373ffffffffffffffffffffffffffffffffffffffff16021790555061025c806100616000396000f3fe608060405234801561001057600080fd5b506004361061004c5760003560e01c806314861b22146100515780631680a5ed1461007f5780631e1f2ae71461009d578063b2bdfa7b146100bf575b600080fd5b61007d6004803603602081101561006757600080fd5b8101908080359060200190929190505050610109565b005b6100876101a9565b6040518082815260200191505060405180910390f35b6100a56101ee565b604051808215151515815260200191505060405180910390f35b6100c7610201565b604051808273ffffffffffffffffffffffffffffffffffffffff1673ffffffffffffffffffffffffffffffffffffffff16815260200191505060405180910390f35b600560009054906101000a900473ffffffffffffffffffffffffffffffffffffffff1673ffffffffffffffffffffffffffffffffffffffff163373ffffffffffffffffffffffffffffffffffffffff161461016357600080fd5b80600060405180807f446f677300000000000000000000000000000000000000000000000000000000815250600401905090815260200160405180910390208190555050565b60008060405180807f446f6773000000000000000000000000000000000000000000000000000000008152506004019050908152602001604051809103902054905090565b600560149054906101000a900460ff1681565b600560009054906101000a900473ffffffffffffffffffffffffffffffffffffffff168156fea265627a7a72315820fa4d3932cc247e30b7605ca6e24db99ad6c48b9d2974e617886a6c73844daea364736f6c63430005100032",
  "source": "// SPDX-License-Identifier: MIT\npragma solidity 0.5.16;\n\nimport \"./Storage.sol\";\n\n// This is a functional (facet) contract\n// DogsV2 has bug fix of adding onlyOwner to setNumberOfDogs()\n\ncontract DogsV2 is Storage {\n\n    // *** IMPORTANT: REMEMBER NOT TO CREATE ANY STATE VARIABLES   ***   \n    // ***    OTHERWISE PROXY CONTRACT MEMORY MAY BE OVERWRITTEN!  ***\n\n    modifier onlyOwner() {\n        require(msg.sender == _owner);\n        _;\n    }\n\n    constructor() public {\n        _owner = msg.sender;\n    }\n\n    function getNumberOfDogs() public view returns(uint256) {\n        return _uintStorage[\"Dogs\"];\n    }\n\n    function setNumberOfDogs(uint256 toSet) public onlyOwner {\n        _uintStorage[\"Dogs\"] = toSet;\n    }\n}",
  "sourcePath": "/Users/Mark/Documents/BlockChain/IvanOnTechAcademy/Solidity - Smart Contract Security/Upgradeable/contracts/DogsV2.sol",
  "compiler": {
    "name": "solc",
    "version": "0.5.16+commit.9c3226ce.Emscripten.clang"
  },
  "schemaVersion": "3.4.0",
  "updatedAt": "2021-05-20T18:20:49.605Z",
  "networkType": "ethereum",
  "devdoc": {
    "methods": {}
  },
  "userdoc": {
    "methods": {}
  }
}